{
  "_format": "hh-sol-artifact-1",
  "contractName": "Lock",
  "sourceName": "contracts/Lock.sol",
  "abi": [
    {
      "inputs": [],
      "stateMutability": "payable",
      "type": "constructor"
    },
    {
      "anonymous": false,
      "inputs": [
        {
          "indexed": true,
          "internalType": "address",
          "name": "sender",
          "type": "address"
        },
        {
          "indexed": false,
          "internalType": "uint256",
          "name": "amount",
          "type": "uint256"
        }
      ],
      "name": "EtherReceived",
      "type": "event"
    },
    {
      "inputs": [],
      "name": "amount",
      "outputs": [
        {
          "internalType": "uint256",
          "name": "",
          "type": "uint256"
        }
      ],
      "stateMutability": "view",
      "type": "function"
    },
    {
      "inputs": [],
      "name": "getAllRecepientToAmounts",
      "outputs": [
        {
          "internalType": "address[]",
          "name": "",
          "type": "address[]"
        },
        {
          "internalType": "uint256[]",
          "name": "",
          "type": "uint256[]"
        }
      ],
      "stateMutability": "view",
      "type": "function"
    },
    {
      "inputs": [
        {
          "internalType": "address",
          "name": "recipient",
          "type": "address"
        }
      ],
      "name": "getRecepientToAmount",
      "outputs": [
        {
          "internalType": "uint256",
          "name": "",
          "type": "uint256"
        }
      ],
      "stateMutability": "view",
      "type": "function"
    },
    {
      "inputs": [
        {
          "internalType": "address",
          "name": "",
          "type": "address"
        }
      ],
      "name": "participantToAmount",
      "outputs": [
        {
          "internalType": "uint256",
          "name": "",
          "type": "uint256"
        }
      ],
      "stateMutability": "view",
      "type": "function"
    },
    {
      "inputs": [
        {
          "internalType": "uint256",
          "name": "",
          "type": "uint256"
        }
      ],
      "name": "participants",
      "outputs": [
        {
          "internalType": "address",
          "name": "",
          "type": "address"
        }
      ],
      "stateMutability": "view",
      "type": "function"
    },
    {
      "inputs": [],
      "name": "prize",
      "outputs": [
        {
          "internalType": "uint256",
          "name": "",
          "type": "uint256"
        }
      ],
      "stateMutability": "view",
      "type": "function"
    },
    {
      "inputs": [
        {
          "internalType": "uint256",
          "name": "",
          "type": "uint256"
        }
      ],
      "name": "recepient",
      "outputs": [
        {
          "internalType": "address payable",
          "name": "",
          "type": "address"
        }
      ],
      "stateMutability": "view",
      "type": "function"
    },
    {
      "inputs": [
        {
          "internalType": "address",
          "name": "",
          "type": "address"
        }
      ],
      "name": "recepientToAmount",
      "outputs": [
        {
          "internalType": "uint256",
          "name": "",
          "type": "uint256"
        }
      ],
      "stateMutability": "view",
      "type": "function"
    },
    {
      "inputs": [],
      "name": "send",
      "outputs": [],
      "stateMutability": "payable",
      "type": "function"
    },
    {
      "inputs": [
        {
          "internalType": "address payable",
          "name": "receiver",
          "type": "address"
        },
        {
          "internalType": "uint256",
          "name": "_amount",
          "type": "uint256"
        }
      ],
      "name": "sendETH",
      "outputs": [],
      "stateMutability": "payable",
      "type": "function"
    },
    {
      "inputs": [],
      "name": "withdraw",
      "outputs": [],
      "stateMutability": "nonpayable",
      "type": "function"
    },
    {
      "stateMutability": "payable",
      "type": "receive"
    }
  ],
  "bytecode": "0x6080604052600060045533600160006101000a81548173ffffffffffffffffffffffffffffffffffffffff021916908373ffffffffffffffffffffffffffffffffffffffff16021790555030600560006101000a81548173ffffffffffffffffffffffffffffffffffffffff021916908373ffffffffffffffffffffffffffffffffffffffff16021790555061100d8061009a6000396000f3fe6080604052600436106100a05760003560e01c80637914710e116100645780637914710e146101d35780638e8ddc5414610210578063aa8c217c1461024d578063b46300ec14610278578063e3ac5d2614610282578063e8b4afb0146102ad576100f5565b80632d9c5f94146100fa57806335c1d349146101265780633ccfd60b1461016357806364a197f31461017a57806367417b0e14610196576100f5565b366100f5573373ffffffffffffffffffffffffffffffffffffffff167f1e57e3bb474320be3d2c77138f75b7c3941292d647f5f9634e33a8e94e0e069b346040516100eb919061096a565b60405180910390a2005b600080fd5b34801561010657600080fd5b5061010f6102ea565b60405161011d929190610b33565b60405180910390f35b34801561013257600080fd5b5061014d60048036038101906101489190610b9b565b6104e6565b60405161015a9190610bd7565b60405180910390f35b34801561016f57600080fd5b50610178610525565b005b610194600480360381019061018f9190610c30565b610620565b005b3480156101a257600080fd5b506101bd60048036038101906101b89190610c9c565b61080f565b6040516101ca919061096a565b60405180910390f35b3480156101df57600080fd5b506101fa60048036038101906101f59190610c9c565b610858565b604051610207919061096a565b60405180910390f35b34801561021c57600080fd5b5061023760048036038101906102329190610c9c565b610870565b604051610244919061096a565b60405180910390f35b34801561025957600080fd5b50610262610888565b60405161026f919061096a565b60405180910390f35b61028061088e565b005b34801561028e57600080fd5b50610297610908565b6040516102a4919061096a565b60405180910390f35b3480156102b957600080fd5b506102d460048036038101906102cf9190610b9b565b610912565b6040516102e19190610cd8565b60405180910390f35b6060806000600280549050905060008167ffffffffffffffff81111561031357610312610cf3565b5b6040519080825280602002602001820160405280156103415781602001602082028036833780820191505090505b50905060008267ffffffffffffffff8111156103605761035f610cf3565b5b60405190808252806020026020018201604052801561038e5781602001602082028036833780820191505090505b50905060005b838110156104d857600281815481106103b0576103af610d22565b5b9060005260206000200160009054906101000a900473ffffffffffffffffffffffffffffffffffffffff168382815181106103ee576103ed610d22565b5b602002602001019073ffffffffffffffffffffffffffffffffffffffff16908173ffffffffffffffffffffffffffffffffffffffff168152505060066000600283815481106104405761043f610d22565b5b9060005260206000200160009054906101000a900473ffffffffffffffffffffffffffffffffffffffff1673ffffffffffffffffffffffffffffffffffffffff1673ffffffffffffffffffffffffffffffffffffffff168152602001908152602001600020548282815181106104b9576104b8610d22565b5b60200260200101818152505080806104d090610d80565b915050610394565b508181945094505050509091565b600381815481106104f657600080fd5b906000526020600020016000915054906101000a900473ffffffffffffffffffffffffffffffffffffffff1681565b600160009054906101000a900473ffffffffffffffffffffffffffffffffffffffff1673ffffffffffffffffffffffffffffffffffffffff163373ffffffffffffffffffffffffffffffffffffffff16146105b5576040517f08c379a00000000000000000000000000000000000000000000000000000000081526004016105ac90610e4b565b60405180910390fd5b600160009054906101000a900473ffffffffffffffffffffffffffffffffffffffff1673ffffffffffffffffffffffffffffffffffffffff166108fc479081150290604051600060405180830381858888f1935050505015801561061d573d6000803e3d6000fd5b50565b3373ffffffffffffffffffffffffffffffffffffffff16600160009054906101000a900473ffffffffffffffffffffffffffffffffffffffff1673ffffffffffffffffffffffffffffffffffffffff16146106b0576040517f08c379a00000000000000000000000000000000000000000000000000000000081526004016106a790610eb7565b60405180910390fd5b6003600280549050106106f8576040517f08c379a00000000000000000000000000000000000000000000000000000000081526004016106ef90610f23565b60405180910390fd5b600160028054905061070a9190610f43565b816107159190610fa6565b6000819055508173ffffffffffffffffffffffffffffffffffffffff166108fc6000549081150290604051600060405180830381858888f19350505050158015610763573d6000803e3d6000fd5b506002829080600181540180825580915050600190039060005260206000200160009091909190916101000a81548173ffffffffffffffffffffffffffffffffffffffff021916908373ffffffffffffffffffffffffffffffffffffffff16021790555080600660008473ffffffffffffffffffffffffffffffffffffffff1673ffffffffffffffffffffffffffffffffffffffff168152602001908152602001600020819055505050565b6000600660008373ffffffffffffffffffffffffffffffffffffffff1673ffffffffffffffffffffffffffffffffffffffff168152602001908152602001600020549050919050565b60066020528060005260406000206000915090505481565b60076020528060005260406000206000915090505481565b60005481565b655af3107a4000600081905550600560009054906101000a900473ffffffffffffffffffffffffffffffffffffffff1673ffffffffffffffffffffffffffffffffffffffff166108fc6000549081150290604051600060405180830381858888f19350505050158015610905573d6000803e3d6000fd5b50565b6000600454905090565b6002818154811061092257600080fd5b906000526020600020016000915054906101000a900473ffffffffffffffffffffffffffffffffffffffff1681565b6000819050919050565b61096481610951565b82525050565b600060208201905061097f600083018461095b565b92915050565b600081519050919050565b600082825260208201905092915050565b6000819050602082019050919050565b600073ffffffffffffffffffffffffffffffffffffffff82169050919050565b60006109dc826109b1565b9050919050565b6109ec816109d1565b82525050565b60006109fe83836109e3565b60208301905092915050565b6000602082019050919050565b6000610a2282610985565b610a2c8185610990565b9350610a37836109a1565b8060005b83811015610a68578151610a4f88826109f2565b9750610a5a83610a0a565b925050600181019050610a3b565b5085935050505092915050565b600081519050919050565b600082825260208201905092915050565b6000819050602082019050919050565b610aaa81610951565b82525050565b6000610abc8383610aa1565b60208301905092915050565b6000602082019050919050565b6000610ae082610a75565b610aea8185610a80565b9350610af583610a91565b8060005b83811015610b26578151610b0d8882610ab0565b9750610b1883610ac8565b925050600181019050610af9565b5085935050505092915050565b60006040820190508181036000830152610b4d8185610a17565b90508181036020830152610b618184610ad5565b90509392505050565b600080fd5b610b7881610951565b8114610b8357600080fd5b50565b600081359050610b9581610b6f565b92915050565b600060208284031215610bb157610bb0610b6a565b5b6000610bbf84828501610b86565b91505092915050565b610bd1816109d1565b82525050565b6000602082019050610bec6000830184610bc8565b92915050565b6000610bfd826109b1565b9050919050565b610c0d81610bf2565b8114610c1857600080fd5b50565b600081359050610c2a81610c04565b92915050565b60008060408385031215610c4757610c46610b6a565b5b6000610c5585828601610c1b565b9250506020610c6685828601610b86565b9150509250929050565b610c79816109d1565b8114610c8457600080fd5b50565b600081359050610c9681610c70565b92915050565b600060208284031215610cb257610cb1610b6a565b5b6000610cc084828501610c87565b91505092915050565b610cd281610bf2565b82525050565b6000602082019050610ced6000830184610cc9565b92915050565b7f4e487b7100000000000000000000000000000000000000000000000000000000600052604160045260246000fd5b7f4e487b7100000000000000000000000000000000000000000000000000000000600052603260045260246000fd5b7f4e487b7100000000000000000000000000000000000000000000000000000000600052601160045260246000fd5b6000610d8b82610951565b91507fffffffffffffffffffffffffffffffffffffffffffffffffffffffffffffffff8203610dbd57610dbc610d51565b5b600182019050919050565b600082825260208201905092915050565b7f4f6e6c7920746865206f776e65722063616e2063616c6c20746869732066756e60008201527f6374696f6e000000000000000000000000000000000000000000000000000000602082015250565b6000610e35602583610dc8565b9150610e4082610dd9565b604082019050919050565b60006020820190508181036000830152610e6481610e28565b9050919050565b7f4f6e6c7920746865206f776e65722063616e2073656e642066756e6473000000600082015250565b6000610ea1601d83610dc8565b9150610eac82610e6b565b602082019050919050565b60006020820190508181036000830152610ed081610e94565b9050919050565b7f596f752063616e6e6f7420676574207072697a652c20736f727279203a282000600082015250565b6000610f0d601f83610dc8565b9150610f1882610ed7565b602082019050919050565b60006020820190508181036000830152610f3c81610f00565b9050919050565b6000610f4e82610951565b9150610f5983610951565b9250828201905080821115610f7157610f70610d51565b5b92915050565b7f4e487b7100000000000000000000000000000000000000000000000000000000600052601260045260246000fd5b6000610fb182610951565b9150610fbc83610951565b925082610fcc57610fcb610f77565b5b82820690509291505056fea2646970667358221220c49d88a3ad0d0687562f76bb7ea98b0414b8b050df46d0090a00064fa78c0c4864736f6c63430008130033",
  "linkReferences": {},
  "deployedLinkReferences": {}
}